{
  "contractName": "ChainList",
  "abi": [
    {
      "anonymous": false,
      "inputs": [
        {
          "indexed": true,
          "internalType": "uint256",
          "name": "_id",
          "type": "uint256"
        },
        {
          "indexed": true,
          "internalType": "address",
          "name": "_seller",
          "type": "address"
        },
        {
          "indexed": true,
          "internalType": "address",
          "name": "_buyer",
          "type": "address"
        },
        {
          "indexed": false,
          "internalType": "string",
          "name": "name",
          "type": "string"
        },
        {
          "indexed": false,
          "internalType": "uint256",
          "name": "price",
          "type": "uint256"
        }
      ],
      "name": "LogBuyArticle",
      "type": "event"
    },
    {
      "anonymous": false,
      "inputs": [
        {
          "indexed": true,
          "internalType": "uint256",
          "name": "_id",
          "type": "uint256"
        },
        {
          "indexed": true,
          "internalType": "address",
          "name": "_seller",
          "type": "address"
        },
        {
          "indexed": false,
          "internalType": "string",
          "name": "name",
          "type": "string"
        },
        {
          "indexed": false,
          "internalType": "uint256",
          "name": "price",
          "type": "uint256"
        }
      ],
      "name": "LogSellArticle",
      "type": "event"
    },
    {
      "inputs": [
        {
          "internalType": "uint256",
          "name": "",
          "type": "uint256"
        }
      ],
      "name": "articles",
      "outputs": [
        {
          "internalType": "uint256",
          "name": "id",
          "type": "uint256"
        },
        {
          "internalType": "address payable",
          "name": "seller",
          "type": "address"
        },
        {
          "internalType": "address",
          "name": "buyer",
          "type": "address"
        },
        {
          "internalType": "string",
          "name": "name",
          "type": "string"
        },
        {
          "internalType": "string",
          "name": "description",
          "type": "string"
        },
        {
          "internalType": "uint256",
          "name": "price",
          "type": "uint256"
        }
      ],
      "stateMutability": "view",
      "type": "function",
      "constant": true
    },
    {
      "inputs": [],
      "name": "kill",
      "outputs": [],
      "stateMutability": "nonpayable",
      "type": "function"
    },
    {
      "inputs": [
        {
          "internalType": "string",
          "name": "_name",
          "type": "string"
        },
        {
          "internalType": "string",
          "name": "_description",
          "type": "string"
        },
        {
          "internalType": "uint256",
          "name": "_price",
          "type": "uint256"
        }
      ],
      "name": "sellArticle",
      "outputs": [],
      "stateMutability": "nonpayable",
      "type": "function"
    },
    {
      "inputs": [
        {
          "internalType": "uint256",
          "name": "_id",
          "type": "uint256"
        }
      ],
      "name": "buyArticle",
      "outputs": [],
      "stateMutability": "payable",
      "type": "function",
      "payable": true
    },
    {
      "inputs": [
        {
          "internalType": "uint256",
          "name": "_id",
          "type": "uint256"
        }
      ],
      "name": "getArticleWithId",
      "outputs": [
        {
          "components": [
            {
              "internalType": "uint256",
              "name": "id",
              "type": "uint256"
            },
            {
              "internalType": "address payable",
              "name": "seller",
              "type": "address"
            },
            {
              "internalType": "address",
              "name": "buyer",
              "type": "address"
            },
            {
              "internalType": "string",
              "name": "name",
              "type": "string"
            },
            {
              "internalType": "string",
              "name": "description",
              "type": "string"
            },
            {
              "internalType": "uint256",
              "name": "price",
              "type": "uint256"
            }
          ],
          "internalType": "struct ChainList.Article",
          "name": "article",
          "type": "tuple"
        }
      ],
      "stateMutability": "view",
      "type": "function",
      "constant": true
    },
    {
      "inputs": [],
      "name": "getArticlesForSale",
      "outputs": [
        {
          "internalType": "uint256[]",
          "name": "",
          "type": "uint256[]"
        }
      ],
      "stateMutability": "view",
      "type": "function",
      "constant": true
    }
  ],
  "bytecode": "0x608060405234801561001057600080fd5b50336000806101000a81548173ffffffffffffffffffffffffffffffffffffffff021916908373ffffffffffffffffffffffffffffffffffffffff160217905550611987806100606000396000f3fe6080604052600436106100555760003560e01c80631cc4baa81461005a57806341c0e1b5146100765780637f6be3da1461008d57806385c224f8146100b8578063d2609515146100f5578063edcfafe61461011e575b600080fd5b610074600480360381019061006f9190610e68565b610160565b005b34801561008257600080fd5b5061008b6104db565b005b34801561009957600080fd5b506100a26105a2565b6040516100af9190610f53565b60405180910390f35b3480156100c457600080fd5b506100df60048036038101906100da9190610e68565b610777565b6040516100ec9190611100565b60405180910390f35b34801561010157600080fd5b5061011c60048036038101906101179190611257565b6109cd565b005b34801561012a57600080fd5b5061014560048036038101906101409190610e68565b610b8d565b60405161015796959493929190611359565b60405180910390f35b6000600154116101a5576040517f08c379a000000000000000000000000000000000000000000000000000000000815260040161019c90611414565b60405180910390fd5b8060015410156101ea576040517f08c379a00000000000000000000000000000000000000000000000000000000081526004016101e190611480565b60405180910390fd5b6000600260008381526020019081526020016000209050600073ffffffffffffffffffffffffffffffffffffffff168160020160009054906101000a900473ffffffffffffffffffffffffffffffffffffffff1673ffffffffffffffffffffffffffffffffffffffff1614610294576040517f08c379a000000000000000000000000000000000000000000000000000000000815260040161028b90611512565b60405180910390fd5b8060010160009054906101000a900473ffffffffffffffffffffffffffffffffffffffff1673ffffffffffffffffffffffffffffffffffffffff163373ffffffffffffffffffffffffffffffffffffffff161415610327576040517f08c379a000000000000000000000000000000000000000000000000000000000815260040161031e906115a4565b60405180910390fd5b806005015434101561036e576040517f08c379a000000000000000000000000000000000000000000000000000000000815260040161036590611636565b60405180910390fd5b338160020160006101000a81548173ffffffffffffffffffffffffffffffffffffffff021916908373ffffffffffffffffffffffffffffffffffffffff1602179055508060010160009054906101000a900473ffffffffffffffffffffffffffffffffffffffff1673ffffffffffffffffffffffffffffffffffffffff166108fc349081150290604051600060405180830381858888f1935050505015801561041b573d6000803e3d6000fd5b508060020160009054906101000a900473ffffffffffffffffffffffffffffffffffffffff1673ffffffffffffffffffffffffffffffffffffffff168160010160009054906101000a900473ffffffffffffffffffffffffffffffffffffffff1673ffffffffffffffffffffffffffffffffffffffff1682600001547f5d28bc06e6f0c45405abfe77bd77236c767f9bd9d044ae2d954a415a2b4823e08460030185600501546040516104cf92919061174c565b60405180910390a45050565b60008054906101000a900473ffffffffffffffffffffffffffffffffffffffff1673ffffffffffffffffffffffffffffffffffffffff163373ffffffffffffffffffffffffffffffffffffffff1614610569576040517f08c379a0000000000000000000000000000000000000000000000000000000008152600401610560906117ee565b60405180910390fd5b60008054906101000a900473ffffffffffffffffffffffffffffffffffffffff1673ffffffffffffffffffffffffffffffffffffffff16ff5b6060600060015467ffffffffffffffff8111156105c2576105c161112c565b5b6040519080825280602002602001820160405280156105f05781602001602082028036833780820191505090505b509050600080600190505b60015481116106c757600073ffffffffffffffffffffffffffffffffffffffff166002600083815260200190815260200160002060020160009054906101000a900473ffffffffffffffffffffffffffffffffffffffff1673ffffffffffffffffffffffffffffffffffffffff1614156106b45760026000828152602001908152602001600020600001548383815181106106995761069861180e565b5b60200260200101818152505081806106b09061186c565b9250505b80806106bf9061186c565b9150506105fb565b5060008167ffffffffffffffff8111156106e4576106e361112c565b5b6040519080825280602002602001820160405280156107125781602001602082028036833780820191505090505b50905060005b8281101561076d578381815181106107335761073261180e565b5b602002602001015182828151811061074e5761074d61180e565b5b60200260200101818152505080806107659061186c565b915050610718565b5080935050505090565b61077f610d19565b8160015410156107c4576040517f08c379a00000000000000000000000000000000000000000000000000000000081526004016107bb90611901565b60405180910390fd5b600260008381526020019081526020016000206040518060c0016040529081600082015481526020016001820160009054906101000a900473ffffffffffffffffffffffffffffffffffffffff1673ffffffffffffffffffffffffffffffffffffffff1673ffffffffffffffffffffffffffffffffffffffff1681526020016002820160009054906101000a900473ffffffffffffffffffffffffffffffffffffffff1673ffffffffffffffffffffffffffffffffffffffff1673ffffffffffffffffffffffffffffffffffffffff1681526020016003820180546108a890611685565b80601f01602080910402602001604051908101604052809291908181526020018280546108d490611685565b80156109215780601f106108f657610100808354040283529160200191610921565b820191906000526020600020905b81548152906001019060200180831161090457829003601f168201915b5050505050815260200160048201805461093a90611685565b80601f016020809104026020016040519081016040528092919081815260200182805461096690611685565b80156109b35780601f10610988576101008083540402835291602001916109b3565b820191906000526020600020905b81548152906001019060200180831161099657829003601f168201915b505050505081526020016005820154815250509050919050565b600160008154809291906109e09061186c565b91905055506040518060c0016040528060015481526020013373ffffffffffffffffffffffffffffffffffffffff168152602001600073ffffffffffffffffffffffffffffffffffffffff168152602001848152602001838152602001828152506002600060015481526020019081526020016000206000820151816000015560208201518160010160006101000a81548173ffffffffffffffffffffffffffffffffffffffff021916908373ffffffffffffffffffffffffffffffffffffffff16021790555060408201518160020160006101000a81548173ffffffffffffffffffffffffffffffffffffffff021916908373ffffffffffffffffffffffffffffffffffffffff1602179055506060820151816003019080519060200190610b0a929190610d7b565b506080820151816004019080519060200190610b27929190610d7b565b5060a082015181600501559050503373ffffffffffffffffffffffffffffffffffffffff166001547fe2ebb0c522a8b90a93f45a5dfd3c0e0516b81519fdf199efe51c474642fe8cec8584604051610b80929190611921565b60405180910390a3505050565b60026020528060005260406000206000915090508060000154908060010160009054906101000a900473ffffffffffffffffffffffffffffffffffffffff16908060020160009054906101000a900473ffffffffffffffffffffffffffffffffffffffff1690806003018054610c0290611685565b80601f0160208091040260200160405190810160405280929190818152602001828054610c2e90611685565b8015610c7b5780601f10610c5057610100808354040283529160200191610c7b565b820191906000526020600020905b815481529060010190602001808311610c5e57829003601f168201915b505050505090806004018054610c9090611685565b80601f0160208091040260200160405190810160405280929190818152602001828054610cbc90611685565b8015610d095780601f10610cde57610100808354040283529160200191610d09565b820191906000526020600020905b815481529060010190602001808311610cec57829003601f168201915b5050505050908060050154905086565b6040518060c0016040528060008152602001600073ffffffffffffffffffffffffffffffffffffffff168152602001600073ffffffffffffffffffffffffffffffffffffffff1681526020016060815260200160608152602001600081525090565b828054610d8790611685565b90600052602060002090601f016020900481019282610da95760008555610df0565b82601f10610dc257805160ff1916838001178555610df0565b82800160010185558215610df0579182015b82811115610def578251825591602001919060010190610dd4565b5b509050610dfd9190610e01565b5090565b5b80821115610e1a576000816000905550600101610e02565b5090565b6000604051905090565b600080fd5b600080fd5b6000819050919050565b610e4581610e32565b8114610e5057600080fd5b50565b600081359050610e6281610e3c565b92915050565b600060208284031215610e7e57610e7d610e28565b5b6000610e8c84828501610e53565b91505092915050565b600081519050919050565b600082825260208201905092915050565b6000819050602082019050919050565b610eca81610e32565b82525050565b6000610edc8383610ec1565b60208301905092915050565b6000602082019050919050565b6000610f0082610e95565b610f0a8185610ea0565b9350610f1583610eb1565b8060005b83811015610f46578151610f2d8882610ed0565b9750610f3883610ee8565b925050600181019050610f19565b5085935050505092915050565b60006020820190508181036000830152610f6d8184610ef5565b905092915050565b600073ffffffffffffffffffffffffffffffffffffffff82169050919050565b6000610fa082610f75565b9050919050565b610fb081610f95565b82525050565b6000610fc182610f75565b9050919050565b610fd181610fb6565b82525050565b600081519050919050565b600082825260208201905092915050565b60005b83811015611011578082015181840152602081019050610ff6565b83811115611020576000848401525b50505050565b6000601f19601f8301169050919050565b600061104282610fd7565b61104c8185610fe2565b935061105c818560208601610ff3565b61106581611026565b840191505092915050565b600060c0830160008301516110886000860182610ec1565b50602083015161109b6020860182610fa7565b5060408301516110ae6040860182610fc8565b50606083015184820360608601526110c68282611037565b915050608083015184820360808601526110e08282611037565b91505060a08301516110f560a0860182610ec1565b508091505092915050565b6000602082019050818103600083015261111a8184611070565b905092915050565b600080fd5b600080fd5b7f4e487b7100000000000000000000000000000000000000000000000000000000600052604160045260246000fd5b61116482611026565b810181811067ffffffffffffffff821117156111835761118261112c565b5b80604052505050565b6000611196610e1e565b90506111a2828261115b565b919050565b600067ffffffffffffffff8211156111c2576111c161112c565b5b6111cb82611026565b9050602081019050919050565b82818337600083830152505050565b60006111fa6111f5846111a7565b61118c565b90508281526020810184848401111561121657611215611127565b5b6112218482856111d8565b509392505050565b600082601f83011261123e5761123d611122565b5b813561124e8482602086016111e7565b91505092915050565b6000806000606084860312156112705761126f610e28565b5b600084013567ffffffffffffffff81111561128e5761128d610e2d565b5b61129a86828701611229565b935050602084013567ffffffffffffffff8111156112bb576112ba610e2d565b5b6112c786828701611229565b92505060406112d886828701610e53565b9150509250925092565b6112eb81610e32565b82525050565b6112fa81610f95565b82525050565b61130981610fb6565b82525050565b600082825260208201905092915050565b600061132b82610fd7565b611335818561130f565b9350611345818560208601610ff3565b61134e81611026565b840191505092915050565b600060c08201905061136e60008301896112e2565b61137b60208301886112f1565b6113886040830187611300565b818103606083015261139a8186611320565b905081810360808301526113ae8185611320565b90506113bd60a08301846112e2565b979650505050505050565b7f546865726520617265206e6f2061727469636c65732079657400000000000000600082015250565b60006113fe60198361130f565b9150611409826113c8565b602082019050919050565b6000602082019050818103600083015261142d816113f1565b9050919050565b7f546869732061727469636c6520646f65736e2774206578697374207965740000600082015250565b600061146a601e8361130f565b915061147582611434565b602082019050919050565b600060208201905081810360008301526114998161145d565b9050919050565b7f546869732070726f647563742068617320616c7265616479206265656e20707560008201527f7263686173656400000000000000000000000000000000000000000000000000602082015250565b60006114fc60278361130f565b9150611507826114a0565b604082019050919050565b6000602082019050818103600083015261152b816114ef565b9050919050565b7f427579657220616e642073656e6465722063616e6e6f7420626520746865207360008201527f616d652061646472657373000000000000000000000000000000000000000000602082015250565b600061158e602b8361130f565b915061159982611532565b604082019050919050565b600060208201905081810360008301526115bd81611581565b9050919050565b7f53656e642076616c7565206d757374206265206772656174657220746861742060008201527f61727469636c6527732070726963650000000000000000000000000000000000602082015250565b6000611620602f8361130f565b915061162b826115c4565b604082019050919050565b6000602082019050818103600083015261164f81611613565b9050919050565b7f4e487b7100000000000000000000000000000000000000000000000000000000600052602260045260246000fd5b6000600282049050600182168061169d57607f821691505b602082108114156116b1576116b0611656565b5b50919050565b60008190508160005260206000209050919050565b600081546116d981611685565b6116e3818661130f565b945060018216600081146116fe576001811461171057611743565b60ff1983168652602086019350611743565b611719856116b7565b60005b8381101561173b5781548189015260018201915060208101905061171c565b808801955050505b50505092915050565b6000604082019050818103600083015261176681856116cc565b905061177560208301846112e2565b9392505050565b7f4f6e6c792074686520636f6e7472616374206f776e65722063616e206465616360008201527f746976617465207468697320636f6e7472616374000000000000000000000000602082015250565b60006117d860348361130f565b91506117e38261177c565b604082019050919050565b60006020820190508181036000830152611807816117cb565b9050919050565b7f4e487b7100000000000000000000000000000000000000000000000000000000600052603260045260246000fd5b7f4e487b7100000000000000000000000000000000000000000000000000000000600052601160045260246000fd5b600061187782610e32565b91507fffffffffffffffffffffffffffffffffffffffffffffffffffffffffffffffff8214156118aa576118a961183d565b5b600182019050919050565b7f546869732061727469636c6520646f65736e2774206578697374000000000000600082015250565b60006118eb601a8361130f565b91506118f6826118b5565b602082019050919050565b6000602082019050818103600083015261191a816118de565b9050919050565b6000604082019050818103600083015261193b8185611320565b905061194a60208301846112e2565b939250505056fea2646970667358221220a231e0605366d176cdd53815f23358747bb4ed39bd895b30ea8e7d4b7a3473e364736f6c634300080a0033",
  "immutableReferences": {},
  "source": "// SPDX-License-Identifier: MIT\npragma solidity ^0.8.10;\n\nimport \"./Parent.sol\";\n\ncontract ChainList is Parent {\n    // Custom types\n    struct Article {\n      uint id;\n      address payable seller;\n      address buyer;\n      string name;\n      string description;\n      uint256 price;\n    }\n\n    // Variables\n    uint articleCounter;\n    // address payable contractOwner;  - implemented on parent\n    mapping (uint => Article) public articles;\n\n    // Events\n    event LogSellArticle(uint indexed _id, address indexed _seller, string name, uint256 price);\n    event LogBuyArticle(uint indexed _id, address indexed _seller, address indexed _buyer, string name, uint256 price);\n\n    // Modifiers - implemented on parent\n    // modifier onlyOwner() {\n    //   require(msg.sender == contractOwner, \"Only the contract owner can deactivate this contract\");\n    //   _;\n    // }\n\n    // Init - implemented on parent\n    // constructor() {\n    //   contractOwner = payable(msg.sender);\n    // }\n\n    // Deactivate\n    function kill() public onlyOwner {\n      selfdestruct(contractOwner);\n    }\n\n    // + + + + + + + + + + + + + + + + + + +  M E T H O D S + + + + + + + + + + + + + + + + + + + + //\n    function sellArticle(string memory _name, string memory _description, uint256 _price) public {      // Update Index\n      articleCounter++;\n\n      // Create article at new index position\n      articles[articleCounter] = Article(articleCounter, payable(msg.sender), address(0), _name, _description, _price);\n\n      // Emit event\n      emit LogSellArticle(articleCounter, payable(msg.sender), _name, _price);\n    }\n\n    function buyArticle(uint _id) payable public {\n      require(articleCounter > 0, \"There are no articles yet\");                // There are articles\n      require(articleCounter >= _id, \"This article doesn't exist yet\");             // Article exists on mapping\n\n      // Retrieve article\n      Article storage article = articles[_id];\n      \n      require(article.buyer == address(0x0), \"This product has already been purchased\");     // There must be no buyer\n      require(msg.sender != article.seller, \"Buyer and sender cannot be the same address\");      // The buyer cannot be the same address that sold it\n      require(msg.value >= article.price, \"Send value must be greater that article's price\");        // The value sent cannot be lower than the expected price\n\n      // Update buyer and send money\n      article.buyer = msg.sender;\n      article.seller.transfer(msg.value);\n\n      // Emit event\n      emit LogBuyArticle(article.id, article.seller, article.buyer, article.name, article.price);\n    }\n\n    function getArticleWithId(uint _id) public view returns (Article memory article) {\n      require(articleCounter >= _id, \"This article doesn't exist\");             // Article exists on mapping\n      return (articles[_id]);\n    }\n\n    function getArticlesForSale() public view returns(uint[] memory) {\n      // Output Array\n      uint[] memory articleIds = new uint[](articleCounter);\n      uint numberofArticlesForSale = 0;\n      \n      // Iterate over articles and push not sold ones\n      for(uint i = 1; i <= articleCounter; i++) {\n        if (articles[i].buyer == address(0)) {\n          articleIds[numberofArticlesForSale] = articles[i].id;\n          numberofArticlesForSale++;\n        }\n      }\n\n      // Copy articleIds array into a smaller forSale array\n      uint[] memory forSale = new uint[](numberofArticlesForSale);\n      for(uint i = 0; i < numberofArticlesForSale; i++) {\n        forSale[i] = articleIds[i];\n      }\n\n      return(forSale);\n    }\n}\n",
  "sourcePath": "/Users/rodrigolabradorserrano/Documents/trials/crypto/Ethereum/chainskills/contracts/ChainList.sol",
  "compiler": {
    "name": "solc",
    "version": "0.8.10+commit.fc410830.Emscripten.clang"
  },
  "schemaVersion": "3.4.3",
  "updatedAt": "2021-12-06T18:20:39.666Z",
  "networkType": "ethereum",
  "devdoc": {
    "kind": "dev",
    "methods": {},
    "version": 1
  },
  "userdoc": {
    "kind": "user",
    "methods": {},
    "version": 1
  }
}