{
  "contractName": "ChainList",
  "abi": [
    {
      "anonymous": false,
      "inputs": [
        {
          "indexed": true,
          "internalType": "address",
          "name": "_seller",
          "type": "address"
        },
        {
          "indexed": false,
          "internalType": "string",
          "name": "name",
          "type": "string"
        },
        {
          "indexed": false,
          "internalType": "uint256",
          "name": "price",
          "type": "uint256"
        }
      ],
      "name": "LogSellArticle",
      "type": "event"
    },
    {
      "inputs": [
        {
          "internalType": "string",
          "name": "_name",
          "type": "string"
        },
        {
          "internalType": "string",
          "name": "_description",
          "type": "string"
        },
        {
          "internalType": "uint256",
          "name": "_price",
          "type": "uint256"
        }
      ],
      "name": "sellArticle",
      "outputs": [],
      "stateMutability": "nonpayable",
      "type": "function"
    },
    {
      "inputs": [],
      "name": "getArticle",
      "outputs": [
        {
          "internalType": "address",
          "name": "_seller",
          "type": "address"
        },
        {
          "internalType": "string",
          "name": "_name",
          "type": "string"
        },
        {
          "internalType": "string",
          "name": "_description",
          "type": "string"
        },
        {
          "internalType": "uint256",
          "name": "_price",
          "type": "uint256"
        }
      ],
      "stateMutability": "view",
      "type": "function",
      "constant": true
    }
  ],
  "bytecode": "0x608060405234801561001057600080fd5b50610800806100206000396000f3fe608060405234801561001057600080fd5b50600436106100365760003560e01c8063c37218a61461003b578063d26095151461005c575b600080fd5b610043610078565b6040516100539493929190610451565b60405180910390f35b61007660048036038101906100719190610619565b6101ce565b005b600060608060008060009054906101000a900473ffffffffffffffffffffffffffffffffffffffff16600160026003548280546100b4906106d3565b80601f01602080910402602001604051908101604052809291908181526020018280546100e0906106d3565b801561012d5780601f106101025761010080835404028352916020019161012d565b820191906000526020600020905b81548152906001019060200180831161011057829003601f168201915b50505050509250818054610140906106d3565b80601f016020809104026020016040519081016040528092919081815260200182805461016c906106d3565b80156101b95780601f1061018e576101008083540402835291602001916101b9565b820191906000526020600020905b81548152906001019060200180831161019c57829003601f168201915b50505050509150935093509350935090919293565b336000806101000a81548173ffffffffffffffffffffffffffffffffffffffff021916908373ffffffffffffffffffffffffffffffffffffffff16021790555082600190805190602001906102249291906102bb565b50816002908051906020019061023b9291906102bb565b508060038190555060008054906101000a900473ffffffffffffffffffffffffffffffffffffffff1673ffffffffffffffffffffffffffffffffffffffff167f02bce32b00112077eb590edcbfae020c674b22a31691eadef8ec7c17541e83cc60016003546040516102ae92919061079a565b60405180910390a2505050565b8280546102c7906106d3565b90600052602060002090601f0160209004810192826102e95760008555610330565b82601f1061030257805160ff1916838001178555610330565b82800160010185558215610330579182015b8281111561032f578251825591602001919060010190610314565b5b50905061033d9190610341565b5090565b5b8082111561035a576000816000905550600101610342565b5090565b600073ffffffffffffffffffffffffffffffffffffffff82169050919050565b60006103898261035e565b9050919050565b6103998161037e565b82525050565b600081519050919050565b600082825260208201905092915050565b60005b838110156103d95780820151818401526020810190506103be565b838111156103e8576000848401525b50505050565b6000601f19601f8301169050919050565b600061040a8261039f565b61041481856103aa565b93506104248185602086016103bb565b61042d816103ee565b840191505092915050565b6000819050919050565b61044b81610438565b82525050565b60006080820190506104666000830187610390565b818103602083015261047881866103ff565b9050818103604083015261048c81856103ff565b905061049b6060830184610442565b95945050505050565b6000604051905090565b600080fd5b600080fd5b600080fd5b600080fd5b7f4e487b7100000000000000000000000000000000000000000000000000000000600052604160045260246000fd5b6104fa826103ee565b810181811067ffffffffffffffff82111715610519576105186104c2565b5b80604052505050565b600061052c6104a4565b905061053882826104f1565b919050565b600067ffffffffffffffff821115610558576105576104c2565b5b610561826103ee565b9050602081019050919050565b82818337600083830152505050565b600061059061058b8461053d565b610522565b9050828152602081018484840111156105ac576105ab6104bd565b5b6105b784828561056e565b509392505050565b600082601f8301126105d4576105d36104b8565b5b81356105e484826020860161057d565b91505092915050565b6105f681610438565b811461060157600080fd5b50565b600081359050610613816105ed565b92915050565b600080600060608486031215610632576106316104ae565b5b600084013567ffffffffffffffff8111156106505761064f6104b3565b5b61065c868287016105bf565b935050602084013567ffffffffffffffff81111561067d5761067c6104b3565b5b610689868287016105bf565b925050604061069a86828701610604565b9150509250925092565b7f4e487b7100000000000000000000000000000000000000000000000000000000600052602260045260246000fd5b600060028204905060018216806106eb57607f821691505b602082108114156106ff576106fe6106a4565b5b50919050565b60008190508160005260206000209050919050565b60008154610727816106d3565b61073181866103aa565b9450600182166000811461074c576001811461075e57610791565b60ff1983168652602086019350610791565b61076785610705565b60005b838110156107895781548189015260018201915060208101905061076a565b808801955050505b50505092915050565b600060408201905081810360008301526107b4818561071a565b90506107c36020830184610442565b939250505056fea2646970667358221220a69415ba18fc5f2e798a6cffda063748f0d467b22a669b02d68195bc7c4facbf64736f6c634300080a0033",
  "immutableReferences": {},
  "source": "// SPDX-License-Identifier: MIT\npragma solidity ^0.8.10;\n\ncontract ChainList {\n    // State variables\n    address seller;\n    string name;\n    string description;\n    uint256 price;\n\n    // Events\n    event LogSellArticle(address indexed _seller, string name, uint256 price);\n\n    // Methods\n    function sellArticle(string memory _name, string memory _description, uint256 _price) public {\n      seller = msg.sender;\n      name = _name;\n      description = _description;\n      price = _price;\n\n      emit LogSellArticle(seller, name, price);\n    }\n\n    function getArticle() public view returns (address _seller, string memory _name, string memory _description, uint256 _price) {\n      return (seller, name, description, price);\n    }\n}\n",
  "sourcePath": "/Users/rodrigolabradorserrano/Documents/trials/crypto/Ethereum/chainskills/contracts/ChainList.sol",
  "compiler": {
    "name": "solc",
    "version": "0.8.10+commit.fc410830.Emscripten.clang"
  },
  "schemaVersion": "3.4.3",
  "updatedAt": "2021-12-01T20:32:18.803Z",
  "networkType": "ethereum",
  "devdoc": {
    "kind": "dev",
    "methods": {},
    "version": 1
  },
  "userdoc": {
    "kind": "user",
    "methods": {},
    "version": 1
  }
}