{
  "contractName": "ChainList",
  "abi": [
    {
      "anonymous": false,
      "inputs": [
        {
          "indexed": true,
          "internalType": "address",
          "name": "_seller",
          "type": "address"
        },
        {
          "indexed": true,
          "internalType": "address",
          "name": "_buyer",
          "type": "address"
        },
        {
          "indexed": false,
          "internalType": "string",
          "name": "name",
          "type": "string"
        },
        {
          "indexed": false,
          "internalType": "uint256",
          "name": "price",
          "type": "uint256"
        }
      ],
      "name": "LogBuyArticle",
      "type": "event"
    },
    {
      "anonymous": false,
      "inputs": [
        {
          "indexed": true,
          "internalType": "address",
          "name": "_seller",
          "type": "address"
        },
        {
          "indexed": false,
          "internalType": "string",
          "name": "name",
          "type": "string"
        },
        {
          "indexed": false,
          "internalType": "uint256",
          "name": "price",
          "type": "uint256"
        }
      ],
      "name": "LogSellArticle",
      "type": "event"
    },
    {
      "inputs": [
        {
          "internalType": "string",
          "name": "_name",
          "type": "string"
        },
        {
          "internalType": "string",
          "name": "_description",
          "type": "string"
        },
        {
          "internalType": "uint256",
          "name": "_price",
          "type": "uint256"
        }
      ],
      "name": "sellArticle",
      "outputs": [],
      "stateMutability": "nonpayable",
      "type": "function"
    },
    {
      "inputs": [],
      "name": "buyArticle",
      "outputs": [],
      "stateMutability": "payable",
      "type": "function",
      "payable": true
    },
    {
      "inputs": [],
      "name": "getArticle",
      "outputs": [
        {
          "internalType": "address",
          "name": "_seller",
          "type": "address"
        },
        {
          "internalType": "address",
          "name": "_buyer",
          "type": "address"
        },
        {
          "internalType": "string",
          "name": "_name",
          "type": "string"
        },
        {
          "internalType": "string",
          "name": "_description",
          "type": "string"
        },
        {
          "internalType": "uint256",
          "name": "_price",
          "type": "uint256"
        }
      ],
      "stateMutability": "view",
      "type": "function",
      "constant": true
    }
  ],
  "bytecode": "0x608060405234801561001057600080fd5b50610b5a806100206000396000f3fe6080604052600436106100345760003560e01c8063a005db4114610039578063c37218a614610043578063d260951514610072575b600080fd5b61004161009b565b005b34801561004f57600080fd5b50610058610318565b604051610069959493929190610718565b60405180910390f35b34801561007e57600080fd5b50610099600480360381019061009491906108ee565b610495565b005b600073ffffffffffffffffffffffffffffffffffffffff1660008054906101000a900473ffffffffffffffffffffffffffffffffffffffff1673ffffffffffffffffffffffffffffffffffffffff1614156100f557600080fd5b600073ffffffffffffffffffffffffffffffffffffffff16600160009054906101000a900473ffffffffffffffffffffffffffffffffffffffff1673ffffffffffffffffffffffffffffffffffffffff161461015057600080fd5b60008054906101000a900473ffffffffffffffffffffffffffffffffffffffff1673ffffffffffffffffffffffffffffffffffffffff163373ffffffffffffffffffffffffffffffffffffffff1614156101a957600080fd5b6004545a346101b891906109a8565b146101c257600080fd5b33600160006101000a81548173ffffffffffffffffffffffffffffffffffffffff021916908373ffffffffffffffffffffffffffffffffffffffff16021790555060008054906101000a900473ffffffffffffffffffffffffffffffffffffffff1673ffffffffffffffffffffffffffffffffffffffff166108fc349081150290604051600060405180830381858888f19350505050158015610269573d6000803e3d6000fd5b50600160009054906101000a900473ffffffffffffffffffffffffffffffffffffffff1673ffffffffffffffffffffffffffffffffffffffff1660008054906101000a900473ffffffffffffffffffffffffffffffffffffffff1673ffffffffffffffffffffffffffffffffffffffff167fdc1065e914cede092c40ba25091b608a250dbbc1b32914631531655c2b5b0081600260045460405161030e929190610af4565b60405180910390a3565b60008060608060008060009054906101000a900473ffffffffffffffffffffffffffffffffffffffff16600160009054906101000a900473ffffffffffffffffffffffffffffffffffffffff166002600360045482805461037890610a2d565b80601f01602080910402602001604051908101604052809291908181526020018280546103a490610a2d565b80156103f15780601f106103c6576101008083540402835291602001916103f1565b820191906000526020600020905b8154815290600101906020018083116103d457829003601f168201915b5050505050925081805461040490610a2d565b80601f016020809104026020016040519081016040528092919081815260200182805461043090610a2d565b801561047d5780601f106104525761010080835404028352916020019161047d565b820191906000526020600020905b81548152906001019060200180831161046057829003601f168201915b50505050509150945094509450945094509091929394565b336000806101000a81548173ffffffffffffffffffffffffffffffffffffffff021916908373ffffffffffffffffffffffffffffffffffffffff16021790555082600290805190602001906104eb929190610582565b508160039080519060200190610502929190610582565b508060048190555060008054906101000a900473ffffffffffffffffffffffffffffffffffffffff1673ffffffffffffffffffffffffffffffffffffffff167f02bce32b00112077eb590edcbfae020c674b22a31691eadef8ec7c17541e83cc6002600454604051610575929190610af4565b60405180910390a2505050565b82805461058e90610a2d565b90600052602060002090601f0160209004810192826105b057600085556105f7565b82601f106105c957805160ff19168380011785556105f7565b828001600101855582156105f7579182015b828111156105f65782518255916020019190600101906105db565b5b5090506106049190610608565b5090565b5b80821115610621576000816000905550600101610609565b5090565b600073ffffffffffffffffffffffffffffffffffffffff82169050919050565b600061065082610625565b9050919050565b61066081610645565b82525050565b600081519050919050565b600082825260208201905092915050565b60005b838110156106a0578082015181840152602081019050610685565b838111156106af576000848401525b50505050565b6000601f19601f8301169050919050565b60006106d182610666565b6106db8185610671565b93506106eb818560208601610682565b6106f4816106b5565b840191505092915050565b6000819050919050565b610712816106ff565b82525050565b600060a08201905061072d6000830188610657565b61073a6020830187610657565b818103604083015261074c81866106c6565b9050818103606083015261076081856106c6565b905061076f6080830184610709565b9695505050505050565b6000604051905090565b600080fd5b600080fd5b600080fd5b600080fd5b7f4e487b7100000000000000000000000000000000000000000000000000000000600052604160045260246000fd5b6107cf826106b5565b810181811067ffffffffffffffff821117156107ee576107ed610797565b5b80604052505050565b6000610801610779565b905061080d82826107c6565b919050565b600067ffffffffffffffff82111561082d5761082c610797565b5b610836826106b5565b9050602081019050919050565b82818337600083830152505050565b600061086561086084610812565b6107f7565b90508281526020810184848401111561088157610880610792565b5b61088c848285610843565b509392505050565b600082601f8301126108a9576108a861078d565b5b81356108b9848260208601610852565b91505092915050565b6108cb816106ff565b81146108d657600080fd5b50565b6000813590506108e8816108c2565b92915050565b60008060006060848603121561090757610906610783565b5b600084013567ffffffffffffffff81111561092557610924610788565b5b61093186828701610894565b935050602084013567ffffffffffffffff81111561095257610951610788565b5b61095e86828701610894565b925050604061096f868287016108d9565b9150509250925092565b7f4e487b7100000000000000000000000000000000000000000000000000000000600052601160045260246000fd5b60006109b3826106ff565b91506109be836106ff565b9250827fffffffffffffffffffffffffffffffffffffffffffffffffffffffffffffffff038211156109f3576109f2610979565b5b828201905092915050565b7f4e487b7100000000000000000000000000000000000000000000000000000000600052602260045260246000fd5b60006002820490506001821680610a4557607f821691505b60208210811415610a5957610a586109fe565b5b50919050565b60008190508160005260206000209050919050565b60008154610a8181610a2d565b610a8b8186610671565b94506001821660008114610aa65760018114610ab857610aeb565b60ff1983168652602086019350610aeb565b610ac185610a5f565b60005b83811015610ae357815481890152600182019150602081019050610ac4565b808801955050505b50505092915050565b60006040820190508181036000830152610b0e8185610a74565b9050610b1d6020830184610709565b939250505056fea264697066735822122007eea22c2e72263bb1ba92b0a52480cb91f02df93fb4c691277ba5dd5d6883b764736f6c634300080a0033",
  "immutableReferences": {},
  "source": "// SPDX-License-Identifier: MIT\npragma solidity ^0.8.10;\n\ncontract ChainList {\n    // State variables\n    address payable seller;\n    address buyer;\n    string name;\n    string description;\n    uint256 price;\n\n    // Events\n    event LogSellArticle(address indexed _seller, string name, uint256 price);\n    event LogBuyArticle(address indexed _seller, address indexed _buyer, string name, uint256 price);\n\n    // Methods\n    function sellArticle(string memory _name, string memory _description, uint256 _price) public {\n      seller = payable(msg.sender);\n      name = _name;\n      description = _description;\n      price = _price;\n\n      emit LogSellArticle(seller, name, price);\n    }\n\n    function buyArticle() payable public {\n      require(seller != address(0x0));\n      require(buyer == address(0x0));\n      require(msg.sender != seller);\n      require(msg.value + gasleft() == price);\n\n      buyer = msg.sender;\n      seller.transfer(msg.value);\n\n      emit LogBuyArticle((seller), buyer, name, price);\n    }\n\n\n    function getArticle() public view returns (address _seller, address _buyer, string memory _name, string memory _description, uint256 _price) {\n      return (seller, buyer, name, description, price);\n    }\n}\n",
  "sourcePath": "/Users/rodrigolabradorserrano/Documents/trials/crypto/Ethereum/chainskills/contracts/ChainList.sol",
  "compiler": {
    "name": "solc",
    "version": "0.8.10+commit.fc410830.Emscripten.clang"
  },
  "schemaVersion": "3.4.3",
  "updatedAt": "2021-12-05T19:46:37.224Z",
  "networkType": "ethereum",
  "devdoc": {
    "kind": "dev",
    "methods": {},
    "version": 1
  },
  "userdoc": {
    "kind": "user",
    "methods": {},
    "version": 1
  }
}