{
  "contractName": "ChainList",
  "abi": [
    {
      "anonymous": false,
      "inputs": [
        {
          "indexed": true,
          "internalType": "uint256",
          "name": "_id",
          "type": "uint256"
        },
        {
          "indexed": true,
          "internalType": "address",
          "name": "_seller",
          "type": "address"
        },
        {
          "indexed": true,
          "internalType": "address",
          "name": "_buyer",
          "type": "address"
        },
        {
          "indexed": false,
          "internalType": "string",
          "name": "name",
          "type": "string"
        },
        {
          "indexed": false,
          "internalType": "uint256",
          "name": "price",
          "type": "uint256"
        }
      ],
      "name": "LogBuyArticle",
      "type": "event"
    },
    {
      "anonymous": false,
      "inputs": [
        {
          "indexed": true,
          "internalType": "uint256",
          "name": "_id",
          "type": "uint256"
        },
        {
          "indexed": true,
          "internalType": "address",
          "name": "_seller",
          "type": "address"
        },
        {
          "indexed": false,
          "internalType": "string",
          "name": "name",
          "type": "string"
        },
        {
          "indexed": false,
          "internalType": "uint256",
          "name": "price",
          "type": "uint256"
        }
      ],
      "name": "LogSellArticle",
      "type": "event"
    },
    {
      "inputs": [
        {
          "internalType": "uint256",
          "name": "",
          "type": "uint256"
        }
      ],
      "name": "articles",
      "outputs": [
        {
          "internalType": "uint256",
          "name": "id",
          "type": "uint256"
        },
        {
          "internalType": "address payable",
          "name": "seller",
          "type": "address"
        },
        {
          "internalType": "address",
          "name": "buyer",
          "type": "address"
        },
        {
          "internalType": "string",
          "name": "name",
          "type": "string"
        },
        {
          "internalType": "string",
          "name": "description",
          "type": "string"
        },
        {
          "internalType": "uint256",
          "name": "price",
          "type": "uint256"
        }
      ],
      "stateMutability": "view",
      "type": "function",
      "constant": true
    },
    {
      "inputs": [
        {
          "internalType": "string",
          "name": "_name",
          "type": "string"
        },
        {
          "internalType": "string",
          "name": "_description",
          "type": "string"
        },
        {
          "internalType": "uint256",
          "name": "_price",
          "type": "uint256"
        }
      ],
      "name": "sellArticle",
      "outputs": [],
      "stateMutability": "nonpayable",
      "type": "function"
    },
    {
      "inputs": [
        {
          "internalType": "uint256",
          "name": "_id",
          "type": "uint256"
        }
      ],
      "name": "buyArticle",
      "outputs": [],
      "stateMutability": "payable",
      "type": "function",
      "payable": true
    },
    {
      "inputs": [],
      "name": "getNumberOfArticles",
      "outputs": [
        {
          "internalType": "uint256",
          "name": "",
          "type": "uint256"
        }
      ],
      "stateMutability": "view",
      "type": "function",
      "constant": true
    },
    {
      "inputs": [],
      "name": "getArticlesForSale",
      "outputs": [
        {
          "internalType": "uint256[]",
          "name": "",
          "type": "uint256[]"
        }
      ],
      "stateMutability": "view",
      "type": "function",
      "constant": true
    }
  ],
  "bytecode": "0x608060405234801561001057600080fd5b50611097806100206000396000f3fe60806040526004361061004a5760003560e01c80631cc4baa81461004f5780637f6be3da1461006b57806389da85d314610096578063d2609515146100c1578063edcfafe6146100ea575b600080fd5b61006960048036038101906100649190610a03565b61012c565b005b34801561007757600080fd5b50610080610398565b60405161008d9190610aee565b60405180910390f35b3480156100a257600080fd5b506100ab6105c3565b6040516100b89190610b1f565b60405180910390f35b3480156100cd57600080fd5b506100e860048036038101906100e39190610c80565b6105cc565b005b3480156100f657600080fd5b50610111600480360381019061010c9190610a03565b61078a565b60405161012396959493929190610df5565b60405180910390f35b600080541161013a57600080fd5b80600054111561014957600080fd5b6000600160008381526020019081526020016000209050600073ffffffffffffffffffffffffffffffffffffffff168160020160009054906101000a900473ffffffffffffffffffffffffffffffffffffffff1673ffffffffffffffffffffffffffffffffffffffff16146101bd57600080fd5b8060010160009054906101000a900473ffffffffffffffffffffffffffffffffffffffff1673ffffffffffffffffffffffffffffffffffffffff163373ffffffffffffffffffffffffffffffffffffffff16141561021a57600080fd5b806005015434101561022b57600080fd5b338160020160006101000a81548173ffffffffffffffffffffffffffffffffffffffff021916908373ffffffffffffffffffffffffffffffffffffffff1602179055508060010160009054906101000a900473ffffffffffffffffffffffffffffffffffffffff1673ffffffffffffffffffffffffffffffffffffffff166108fc349081150290604051600060405180830381858888f193505050501580156102d8573d6000803e3d6000fd5b508060020160009054906101000a900473ffffffffffffffffffffffffffffffffffffffff1673ffffffffffffffffffffffffffffffffffffffff168160010160009054906101000a900473ffffffffffffffffffffffffffffffffffffffff1673ffffffffffffffffffffffffffffffffffffffff1682600001547f5d28bc06e6f0c45405abfe77bd77236c767f9bd9d044ae2d954a415a2b4823e084600301856005015460405161038c929190610f5a565b60405180910390a45050565b60606000805414156103f557600067ffffffffffffffff8111156103bf576103be610b55565b5b6040519080825280602002602001820160405280156103ed5781602001602082028036833780820191505090505b5090506105c0565b6000805467ffffffffffffffff81111561041257610411610b55565b5b6040519080825280602002602001820160405280156104405781602001602082028036833780820191505090505b5090506000805b600054811161051357600073ffffffffffffffffffffffffffffffffffffffff166001600083815260200190815260200160002060020160009054906101000a900473ffffffffffffffffffffffffffffffffffffffff1673ffffffffffffffffffffffffffffffffffffffff1614156105005760016000828152602001908152602001600020600001548383815181106104e5576104e4610f8a565b5b60200260200101818152505081806104fc90610fe8565b9250505b808061050b90610fe8565b915050610447565b5060008167ffffffffffffffff8111156105305761052f610b55565b5b60405190808252806020026020018201604052801561055e5781602001602082028036833780820191505090505b50905060005b8281116105b85783818151811061057e5761057d610f8a565b5b602002602001015182828151811061059957610598610f8a565b5b60200260200101818152505080806105b090610fe8565b915050610564565b508093505050505b90565b60008054905090565b6000808154809291906105de90610fe8565b91905055506040518060c0016040528060005481526020013373ffffffffffffffffffffffffffffffffffffffff168152602001600073ffffffffffffffffffffffffffffffffffffffff1681526020018481526020018381526020018281525060016000805481526020019081526020016000206000820151816000015560208201518160010160006101000a81548173ffffffffffffffffffffffffffffffffffffffff021916908373ffffffffffffffffffffffffffffffffffffffff16021790555060408201518160020160006101000a81548173ffffffffffffffffffffffffffffffffffffffff021916908373ffffffffffffffffffffffffffffffffffffffff1602179055506060820151816003019080519060200190610707929190610916565b506080820151816004019080519060200190610724929190610916565b5060a082015181600501559050503373ffffffffffffffffffffffffffffffffffffffff166000547fe2ebb0c522a8b90a93f45a5dfd3c0e0516b81519fdf199efe51c474642fe8cec858460405161077d929190611031565b60405180910390a3505050565b60016020528060005260406000206000915090508060000154908060010160009054906101000a900473ffffffffffffffffffffffffffffffffffffffff16908060020160009054906101000a900473ffffffffffffffffffffffffffffffffffffffff16908060030180546107ff90610e93565b80601f016020809104026020016040519081016040528092919081815260200182805461082b90610e93565b80156108785780601f1061084d57610100808354040283529160200191610878565b820191906000526020600020905b81548152906001019060200180831161085b57829003601f168201915b50505050509080600401805461088d90610e93565b80601f01602080910402602001604051908101604052809291908181526020018280546108b990610e93565b80156109065780601f106108db57610100808354040283529160200191610906565b820191906000526020600020905b8154815290600101906020018083116108e957829003601f168201915b5050505050908060050154905086565b82805461092290610e93565b90600052602060002090601f016020900481019282610944576000855561098b565b82601f1061095d57805160ff191683800117855561098b565b8280016001018555821561098b579182015b8281111561098a57825182559160200191906001019061096f565b5b509050610998919061099c565b5090565b5b808211156109b557600081600090555060010161099d565b5090565b6000604051905090565b600080fd5b600080fd5b6000819050919050565b6109e0816109cd565b81146109eb57600080fd5b50565b6000813590506109fd816109d7565b92915050565b600060208284031215610a1957610a186109c3565b5b6000610a27848285016109ee565b91505092915050565b600081519050919050565b600082825260208201905092915050565b6000819050602082019050919050565b610a65816109cd565b82525050565b6000610a778383610a5c565b60208301905092915050565b6000602082019050919050565b6000610a9b82610a30565b610aa58185610a3b565b9350610ab083610a4c565b8060005b83811015610ae1578151610ac88882610a6b565b9750610ad383610a83565b925050600181019050610ab4565b5085935050505092915050565b60006020820190508181036000830152610b088184610a90565b905092915050565b610b19816109cd565b82525050565b6000602082019050610b346000830184610b10565b92915050565b600080fd5b600080fd5b6000601f19601f8301169050919050565b7f4e487b7100000000000000000000000000000000000000000000000000000000600052604160045260246000fd5b610b8d82610b44565b810181811067ffffffffffffffff82111715610bac57610bab610b55565b5b80604052505050565b6000610bbf6109b9565b9050610bcb8282610b84565b919050565b600067ffffffffffffffff821115610beb57610bea610b55565b5b610bf482610b44565b9050602081019050919050565b82818337600083830152505050565b6000610c23610c1e84610bd0565b610bb5565b905082815260208101848484011115610c3f57610c3e610b3f565b5b610c4a848285610c01565b509392505050565b600082601f830112610c6757610c66610b3a565b5b8135610c77848260208601610c10565b91505092915050565b600080600060608486031215610c9957610c986109c3565b5b600084013567ffffffffffffffff811115610cb757610cb66109c8565b5b610cc386828701610c52565b935050602084013567ffffffffffffffff811115610ce457610ce36109c8565b5b610cf086828701610c52565b9250506040610d01868287016109ee565b9150509250925092565b600073ffffffffffffffffffffffffffffffffffffffff82169050919050565b6000610d3682610d0b565b9050919050565b610d4681610d2b565b82525050565b6000610d5782610d0b565b9050919050565b610d6781610d4c565b82525050565b600081519050919050565b600082825260208201905092915050565b60005b83811015610da7578082015181840152602081019050610d8c565b83811115610db6576000848401525b50505050565b6000610dc782610d6d565b610dd18185610d78565b9350610de1818560208601610d89565b610dea81610b44565b840191505092915050565b600060c082019050610e0a6000830189610b10565b610e176020830188610d3d565b610e246040830187610d5e565b8181036060830152610e368186610dbc565b90508181036080830152610e4a8185610dbc565b9050610e5960a0830184610b10565b979650505050505050565b7f4e487b7100000000000000000000000000000000000000000000000000000000600052602260045260246000fd5b60006002820490506001821680610eab57607f821691505b60208210811415610ebf57610ebe610e64565b5b50919050565b60008190508160005260206000209050919050565b60008154610ee781610e93565b610ef18186610d78565b94506001821660008114610f0c5760018114610f1e57610f51565b60ff1983168652602086019350610f51565b610f2785610ec5565b60005b83811015610f4957815481890152600182019150602081019050610f2a565b808801955050505b50505092915050565b60006040820190508181036000830152610f748185610eda565b9050610f836020830184610b10565b9392505050565b7f4e487b7100000000000000000000000000000000000000000000000000000000600052603260045260246000fd5b7f4e487b7100000000000000000000000000000000000000000000000000000000600052601160045260246000fd5b6000610ff3826109cd565b91507fffffffffffffffffffffffffffffffffffffffffffffffffffffffffffffffff82141561102657611025610fb9565b5b600182019050919050565b6000604082019050818103600083015261104b8185610dbc565b905061105a6020830184610b10565b939250505056fea2646970667358221220f31955fcd487ba6ef4e915a8798ebd857c7fd388453afe54492b18a52b9d18a564736f6c634300080a0033",
  "immutableReferences": {},
  "source": "// SPDX-License-Identifier: MIT\npragma solidity ^0.8.10;\n\ncontract ChainList {\n    // Custom types\n    struct Article {\n      uint id;\n      address payable seller;\n      address buyer;\n      string name;\n      string description;\n      uint256 price;\n    }\n\n    // Variables\n    uint articleCounter;\n    mapping (uint => Article) public articles;\n\n    // Events\n    event LogSellArticle(uint indexed _id, address indexed _seller, string name, uint256 price);\n    event LogBuyArticle(uint indexed _id, address indexed _seller, address indexed _buyer, string name, uint256 price);\n\n    // Methods\n    function sellArticle(string memory _name, string memory _description, uint256 _price) public {\n      // New article index\n      articleCounter++;\n\n      // Create article at new index position\n      articles[articleCounter] = Article(articleCounter, payable(msg.sender), address(0), _name, _description, _price);\n\n      // Emit event\n      emit LogSellArticle(articleCounter, payable(msg.sender), _name, _price);\n    }\n\n    function buyArticle(uint _id) payable public {\n      require(articleCounter > 0);                // There are articles\n      require(articleCounter <= _id);             // Article exists on mapping\n\n      // Retrieve article\n      Article storage article = articles[_id];\n      \n      require(article.buyer == address(0x0));     // There must be no buyer\n      require(msg.sender != article.seller);      // The buyer cannot be the same address that sold it\n      require(msg.value >= article.price);        // The value sent cannot be lower than the expected price\n\n      // Update buyer and send money\n      article.buyer = msg.sender;\n      article.seller.transfer(msg.value);\n\n      // Emit event\n      emit LogBuyArticle(article.id, article.seller, article.buyer, article.name, article.price);\n    }\n\n    function getNumberOfArticles() public view returns (uint) {\n      return (articleCounter);\n    }\n\n    function getArticlesForSale() public view returns(uint[] memory) {\n      // Guards\n      if (articleCounter == 0) {\n        return new uint[](0);\n      }\n\n      // Output Array\n      uint[] memory articleIds = new uint[](articleCounter);\n      uint numberofArticlesForSale = 0;\n      \n      // Iterate over articles and push not sold ones\n      for(uint i = 0; i <= articleCounter; i++) {\n        if (articles[i].buyer == address(0)) {\n          articleIds[numberofArticlesForSale] = articles[i].id;\n          numberofArticlesForSale++;\n        }\n      }\n\n      // Copy articleIds array into a smaller forSale array\n      uint[] memory forSale = new uint[](numberofArticlesForSale);\n      for(uint i = 0; i <= numberofArticlesForSale; i++) {\n        forSale[i] = articleIds[i];\n      }\n\n      return(forSale);\n    }\n}\n",
  "sourcePath": "/Users/rodrigolabradorserrano/Documents/trials/crypto/Ethereum/chainskills/contracts/ChainList.sol",
  "compiler": {
    "name": "solc",
    "version": "0.8.10+commit.fc410830.Emscripten.clang"
  },
  "schemaVersion": "3.4.3",
  "updatedAt": "2021-12-05T20:52:14.656Z",
  "networkType": "ethereum",
  "devdoc": {
    "kind": "dev",
    "methods": {},
    "version": 1
  },
  "userdoc": {
    "kind": "user",
    "methods": {},
    "version": 1
  }
}