{
  "contractName": "ChainList",
  "abi": [
    {
      "anonymous": false,
      "inputs": [
        {
          "indexed": true,
          "internalType": "uint256",
          "name": "_id",
          "type": "uint256"
        },
        {
          "indexed": true,
          "internalType": "address",
          "name": "_seller",
          "type": "address"
        },
        {
          "indexed": true,
          "internalType": "address",
          "name": "_buyer",
          "type": "address"
        },
        {
          "indexed": false,
          "internalType": "string",
          "name": "name",
          "type": "string"
        },
        {
          "indexed": false,
          "internalType": "uint256",
          "name": "price",
          "type": "uint256"
        }
      ],
      "name": "LogBuyArticle",
      "type": "event"
    },
    {
      "anonymous": false,
      "inputs": [
        {
          "indexed": true,
          "internalType": "uint256",
          "name": "_id",
          "type": "uint256"
        },
        {
          "indexed": true,
          "internalType": "address",
          "name": "_seller",
          "type": "address"
        },
        {
          "indexed": false,
          "internalType": "string",
          "name": "name",
          "type": "string"
        },
        {
          "indexed": false,
          "internalType": "uint256",
          "name": "price",
          "type": "uint256"
        }
      ],
      "name": "LogSellArticle",
      "type": "event"
    },
    {
      "inputs": [
        {
          "internalType": "uint256",
          "name": "",
          "type": "uint256"
        }
      ],
      "name": "articles",
      "outputs": [
        {
          "internalType": "uint256",
          "name": "id",
          "type": "uint256"
        },
        {
          "internalType": "address payable",
          "name": "seller",
          "type": "address"
        },
        {
          "internalType": "address",
          "name": "buyer",
          "type": "address"
        },
        {
          "internalType": "string",
          "name": "name",
          "type": "string"
        },
        {
          "internalType": "string",
          "name": "description",
          "type": "string"
        },
        {
          "internalType": "uint256",
          "name": "price",
          "type": "uint256"
        }
      ],
      "stateMutability": "view",
      "type": "function",
      "constant": true
    },
    {
      "inputs": [
        {
          "internalType": "string",
          "name": "_name",
          "type": "string"
        },
        {
          "internalType": "string",
          "name": "_description",
          "type": "string"
        },
        {
          "internalType": "uint256",
          "name": "_price",
          "type": "uint256"
        }
      ],
      "name": "sellArticle",
      "outputs": [],
      "stateMutability": "nonpayable",
      "type": "function"
    },
    {
      "inputs": [
        {
          "internalType": "uint256",
          "name": "_id",
          "type": "uint256"
        }
      ],
      "name": "buyArticle",
      "outputs": [],
      "stateMutability": "payable",
      "type": "function",
      "payable": true
    },
    {
      "inputs": [
        {
          "internalType": "uint256",
          "name": "_id",
          "type": "uint256"
        }
      ],
      "name": "getArticleWithId",
      "outputs": [
        {
          "components": [
            {
              "internalType": "uint256",
              "name": "id",
              "type": "uint256"
            },
            {
              "internalType": "address payable",
              "name": "seller",
              "type": "address"
            },
            {
              "internalType": "address",
              "name": "buyer",
              "type": "address"
            },
            {
              "internalType": "string",
              "name": "name",
              "type": "string"
            },
            {
              "internalType": "string",
              "name": "description",
              "type": "string"
            },
            {
              "internalType": "uint256",
              "name": "price",
              "type": "uint256"
            }
          ],
          "internalType": "struct ChainList.Article",
          "name": "article",
          "type": "tuple"
        }
      ],
      "stateMutability": "view",
      "type": "function",
      "constant": true
    },
    {
      "inputs": [],
      "name": "getArticlesForSale",
      "outputs": [
        {
          "internalType": "uint256[]",
          "name": "",
          "type": "uint256[]"
        }
      ],
      "stateMutability": "view",
      "type": "function",
      "constant": true
    }
  ],
  "bytecode": "0x608060405234801561001057600080fd5b50611808806100206000396000f3fe60806040526004361061004a5760003560e01c80631cc4baa81461004f5780637f6be3da1461006b57806385c224f814610096578063d2609515146100d3578063edcfafe6146100fc575b600080fd5b61006960048036038101906100649190610d7b565b61013e565b005b34801561007757600080fd5b506100806104b8565b60405161008d9190610e66565b60405180910390f35b3480156100a257600080fd5b506100bd60048036038101906100b89190610d7b565b61068c565b6040516100ca9190611013565b60405180910390f35b3480156100df57600080fd5b506100fa60048036038101906100f5919061116a565b6108e2565b005b34801561010857600080fd5b50610123600480360381019061011e9190610d7b565b610aa0565b6040516101359695949392919061126c565b60405180910390f35b6000805411610182576040517f08c379a000000000000000000000000000000000000000000000000000000000815260040161017990611327565b60405180910390fd5b8060005410156101c7576040517f08c379a00000000000000000000000000000000000000000000000000000000081526004016101be90611393565b60405180910390fd5b6000600160008381526020019081526020016000209050600073ffffffffffffffffffffffffffffffffffffffff168160020160009054906101000a900473ffffffffffffffffffffffffffffffffffffffff1673ffffffffffffffffffffffffffffffffffffffff1614610271576040517f08c379a000000000000000000000000000000000000000000000000000000000815260040161026890611425565b60405180910390fd5b8060010160009054906101000a900473ffffffffffffffffffffffffffffffffffffffff1673ffffffffffffffffffffffffffffffffffffffff163373ffffffffffffffffffffffffffffffffffffffff161415610304576040517f08c379a00000000000000000000000000000000000000000000000000000000081526004016102fb906114b7565b60405180910390fd5b806005015434101561034b576040517f08c379a000000000000000000000000000000000000000000000000000000000815260040161034290611549565b60405180910390fd5b338160020160006101000a81548173ffffffffffffffffffffffffffffffffffffffff021916908373ffffffffffffffffffffffffffffffffffffffff1602179055508060010160009054906101000a900473ffffffffffffffffffffffffffffffffffffffff1673ffffffffffffffffffffffffffffffffffffffff166108fc349081150290604051600060405180830381858888f193505050501580156103f8573d6000803e3d6000fd5b508060020160009054906101000a900473ffffffffffffffffffffffffffffffffffffffff1673ffffffffffffffffffffffffffffffffffffffff168160010160009054906101000a900473ffffffffffffffffffffffffffffffffffffffff1673ffffffffffffffffffffffffffffffffffffffff1682600001547f5d28bc06e6f0c45405abfe77bd77236c767f9bd9d044ae2d954a415a2b4823e08460030185600501546040516104ac92919061165f565b60405180910390a45050565b60606000805467ffffffffffffffff8111156104d7576104d661103f565b5b6040519080825280602002602001820160405280156105055781602001602082028036833780820191505090505b509050600080600190505b60005481116105dc57600073ffffffffffffffffffffffffffffffffffffffff166001600083815260200190815260200160002060020160009054906101000a900473ffffffffffffffffffffffffffffffffffffffff1673ffffffffffffffffffffffffffffffffffffffff1614156105c95760016000828152602001908152602001600020600001548383815181106105ae576105ad61168f565b5b60200260200101818152505081806105c5906116ed565b9250505b80806105d4906116ed565b915050610510565b5060008167ffffffffffffffff8111156105f9576105f861103f565b5b6040519080825280602002602001820160405280156106275781602001602082028036833780820191505090505b50905060005b82811015610682578381815181106106485761064761168f565b5b60200260200101518282815181106106635761066261168f565b5b602002602001018181525050808061067a906116ed565b91505061062d565b5080935050505090565b610694610c2c565b8160005410156106d9576040517f08c379a00000000000000000000000000000000000000000000000000000000081526004016106d090611782565b60405180910390fd5b600160008381526020019081526020016000206040518060c0016040529081600082015481526020016001820160009054906101000a900473ffffffffffffffffffffffffffffffffffffffff1673ffffffffffffffffffffffffffffffffffffffff1673ffffffffffffffffffffffffffffffffffffffff1681526020016002820160009054906101000a900473ffffffffffffffffffffffffffffffffffffffff1673ffffffffffffffffffffffffffffffffffffffff1673ffffffffffffffffffffffffffffffffffffffff1681526020016003820180546107bd90611598565b80601f01602080910402602001604051908101604052809291908181526020018280546107e990611598565b80156108365780601f1061080b57610100808354040283529160200191610836565b820191906000526020600020905b81548152906001019060200180831161081957829003601f168201915b5050505050815260200160048201805461084f90611598565b80601f016020809104026020016040519081016040528092919081815260200182805461087b90611598565b80156108c85780601f1061089d576101008083540402835291602001916108c8565b820191906000526020600020905b8154815290600101906020018083116108ab57829003601f168201915b505050505081526020016005820154815250509050919050565b6000808154809291906108f4906116ed565b91905055506040518060c0016040528060005481526020013373ffffffffffffffffffffffffffffffffffffffff168152602001600073ffffffffffffffffffffffffffffffffffffffff1681526020018481526020018381526020018281525060016000805481526020019081526020016000206000820151816000015560208201518160010160006101000a81548173ffffffffffffffffffffffffffffffffffffffff021916908373ffffffffffffffffffffffffffffffffffffffff16021790555060408201518160020160006101000a81548173ffffffffffffffffffffffffffffffffffffffff021916908373ffffffffffffffffffffffffffffffffffffffff1602179055506060820151816003019080519060200190610a1d929190610c8e565b506080820151816004019080519060200190610a3a929190610c8e565b5060a082015181600501559050503373ffffffffffffffffffffffffffffffffffffffff166000547fe2ebb0c522a8b90a93f45a5dfd3c0e0516b81519fdf199efe51c474642fe8cec8584604051610a939291906117a2565b60405180910390a3505050565b60016020528060005260406000206000915090508060000154908060010160009054906101000a900473ffffffffffffffffffffffffffffffffffffffff16908060020160009054906101000a900473ffffffffffffffffffffffffffffffffffffffff1690806003018054610b1590611598565b80601f0160208091040260200160405190810160405280929190818152602001828054610b4190611598565b8015610b8e5780601f10610b6357610100808354040283529160200191610b8e565b820191906000526020600020905b815481529060010190602001808311610b7157829003601f168201915b505050505090806004018054610ba390611598565b80601f0160208091040260200160405190810160405280929190818152602001828054610bcf90611598565b8015610c1c5780601f10610bf157610100808354040283529160200191610c1c565b820191906000526020600020905b815481529060010190602001808311610bff57829003601f168201915b5050505050908060050154905086565b6040518060c0016040528060008152602001600073ffffffffffffffffffffffffffffffffffffffff168152602001600073ffffffffffffffffffffffffffffffffffffffff1681526020016060815260200160608152602001600081525090565b828054610c9a90611598565b90600052602060002090601f016020900481019282610cbc5760008555610d03565b82601f10610cd557805160ff1916838001178555610d03565b82800160010185558215610d03579182015b82811115610d02578251825591602001919060010190610ce7565b5b509050610d109190610d14565b5090565b5b80821115610d2d576000816000905550600101610d15565b5090565b6000604051905090565b600080fd5b600080fd5b6000819050919050565b610d5881610d45565b8114610d6357600080fd5b50565b600081359050610d7581610d4f565b92915050565b600060208284031215610d9157610d90610d3b565b5b6000610d9f84828501610d66565b91505092915050565b600081519050919050565b600082825260208201905092915050565b6000819050602082019050919050565b610ddd81610d45565b82525050565b6000610def8383610dd4565b60208301905092915050565b6000602082019050919050565b6000610e1382610da8565b610e1d8185610db3565b9350610e2883610dc4565b8060005b83811015610e59578151610e408882610de3565b9750610e4b83610dfb565b925050600181019050610e2c565b5085935050505092915050565b60006020820190508181036000830152610e808184610e08565b905092915050565b600073ffffffffffffffffffffffffffffffffffffffff82169050919050565b6000610eb382610e88565b9050919050565b610ec381610ea8565b82525050565b6000610ed482610e88565b9050919050565b610ee481610ec9565b82525050565b600081519050919050565b600082825260208201905092915050565b60005b83811015610f24578082015181840152602081019050610f09565b83811115610f33576000848401525b50505050565b6000601f19601f8301169050919050565b6000610f5582610eea565b610f5f8185610ef5565b9350610f6f818560208601610f06565b610f7881610f39565b840191505092915050565b600060c083016000830151610f9b6000860182610dd4565b506020830151610fae6020860182610eba565b506040830151610fc16040860182610edb565b5060608301518482036060860152610fd98282610f4a565b91505060808301518482036080860152610ff38282610f4a565b91505060a083015161100860a0860182610dd4565b508091505092915050565b6000602082019050818103600083015261102d8184610f83565b905092915050565b600080fd5b600080fd5b7f4e487b7100000000000000000000000000000000000000000000000000000000600052604160045260246000fd5b61107782610f39565b810181811067ffffffffffffffff821117156110965761109561103f565b5b80604052505050565b60006110a9610d31565b90506110b5828261106e565b919050565b600067ffffffffffffffff8211156110d5576110d461103f565b5b6110de82610f39565b9050602081019050919050565b82818337600083830152505050565b600061110d611108846110ba565b61109f565b9050828152602081018484840111156111295761112861103a565b5b6111348482856110eb565b509392505050565b600082601f83011261115157611150611035565b5b81356111618482602086016110fa565b91505092915050565b60008060006060848603121561118357611182610d3b565b5b600084013567ffffffffffffffff8111156111a1576111a0610d40565b5b6111ad8682870161113c565b935050602084013567ffffffffffffffff8111156111ce576111cd610d40565b5b6111da8682870161113c565b92505060406111eb86828701610d66565b9150509250925092565b6111fe81610d45565b82525050565b61120d81610ea8565b82525050565b61121c81610ec9565b82525050565b600082825260208201905092915050565b600061123e82610eea565b6112488185611222565b9350611258818560208601610f06565b61126181610f39565b840191505092915050565b600060c08201905061128160008301896111f5565b61128e6020830188611204565b61129b6040830187611213565b81810360608301526112ad8186611233565b905081810360808301526112c18185611233565b90506112d060a08301846111f5565b979650505050505050565b7f546865726520617265206e6f2061727469636c65732079657400000000000000600082015250565b6000611311601983611222565b915061131c826112db565b602082019050919050565b6000602082019050818103600083015261134081611304565b9050919050565b7f546869732061727469636c6520646f65736e2774206578697374207965740000600082015250565b600061137d601e83611222565b915061138882611347565b602082019050919050565b600060208201905081810360008301526113ac81611370565b9050919050565b7f546869732070726f647563742068617320616c7265616479206265656e20707560008201527f7263686173656400000000000000000000000000000000000000000000000000602082015250565b600061140f602783611222565b915061141a826113b3565b604082019050919050565b6000602082019050818103600083015261143e81611402565b9050919050565b7f427579657220616e642073656e6465722063616e6e6f7420626520746865207360008201527f616d652061646472657373000000000000000000000000000000000000000000602082015250565b60006114a1602b83611222565b91506114ac82611445565b604082019050919050565b600060208201905081810360008301526114d081611494565b9050919050565b7f53656e642076616c7565206d757374206265206772656174657220746861742060008201527f61727469636c6527732070726963650000000000000000000000000000000000602082015250565b6000611533602f83611222565b915061153e826114d7565b604082019050919050565b6000602082019050818103600083015261156281611526565b9050919050565b7f4e487b7100000000000000000000000000000000000000000000000000000000600052602260045260246000fd5b600060028204905060018216806115b057607f821691505b602082108114156115c4576115c3611569565b5b50919050565b60008190508160005260206000209050919050565b600081546115ec81611598565b6115f68186611222565b94506001821660008114611611576001811461162357611656565b60ff1983168652602086019350611656565b61162c856115ca565b60005b8381101561164e5781548189015260018201915060208101905061162f565b808801955050505b50505092915050565b6000604082019050818103600083015261167981856115df565b905061168860208301846111f5565b9392505050565b7f4e487b7100000000000000000000000000000000000000000000000000000000600052603260045260246000fd5b7f4e487b7100000000000000000000000000000000000000000000000000000000600052601160045260246000fd5b60006116f882610d45565b91507fffffffffffffffffffffffffffffffffffffffffffffffffffffffffffffffff82141561172b5761172a6116be565b5b600182019050919050565b7f546869732061727469636c6520646f65736e2774206578697374000000000000600082015250565b600061176c601a83611222565b915061177782611736565b602082019050919050565b6000602082019050818103600083015261179b8161175f565b9050919050565b600060408201905081810360008301526117bc8185611233565b90506117cb60208301846111f5565b939250505056fea26469706673582212205f32f7a200bad4c85ca5b4c6288a96bd9cdd1ffbc362800e02eee9ec414cd9a664736f6c634300080a0033",
  "immutableReferences": {},
  "source": "// SPDX-License-Identifier: MIT\npragma solidity ^0.8.10;\n\ncontract ChainList {\n    // Custom types\n    struct Article {\n      uint id;\n      address payable seller;\n      address buyer;\n      string name;\n      string description;\n      uint256 price;\n    }\n\n    // Variables\n    uint articleCounter;\n    mapping (uint => Article) public articles;\n\n    // Events\n    event LogSellArticle(uint indexed _id, address indexed _seller, string name, uint256 price);\n    event LogBuyArticle(uint indexed _id, address indexed _seller, address indexed _buyer, string name, uint256 price);\n\n    // Methods\n    function sellArticle(string memory _name, string memory _description, uint256 _price) public {      // Update Index\n      articleCounter++;\n\n      // Create article at new index position\n      articles[articleCounter] = Article(articleCounter, payable(msg.sender), address(0), _name, _description, _price);\n\n      // Emit event\n      emit LogSellArticle(articleCounter, payable(msg.sender), _name, _price);\n    }\n\n    function buyArticle(uint _id) payable public {\n      require(articleCounter > 0, \"There are no articles yet\");                // There are articles\n      require(articleCounter >= _id, \"This article doesn't exist yet\");             // Article exists on mapping\n\n      // Retrieve article\n      Article storage article = articles[_id];\n      \n      require(article.buyer == address(0x0), \"This product has already been purchased\");     // There must be no buyer\n      require(msg.sender != article.seller, \"Buyer and sender cannot be the same address\");      // The buyer cannot be the same address that sold it\n      require(msg.value >= article.price, \"Send value must be greater that article's price\");        // The value sent cannot be lower than the expected price\n\n      // Update buyer and send money\n      article.buyer = msg.sender;\n      article.seller.transfer(msg.value);\n\n      // Emit event\n      emit LogBuyArticle(article.id, article.seller, article.buyer, article.name, article.price);\n    }\n\n    function getArticleWithId(uint _id) public view returns (Article memory article) {\n      require(articleCounter >= _id, \"This article doesn't exist\");             // Article exists on mapping\n      return (articles[_id]);\n    }\n\n    function getArticlesForSale() public view returns(uint[] memory) {\n      // Output Array\n      uint[] memory articleIds = new uint[](articleCounter);\n      uint numberofArticlesForSale = 0;\n      \n      // Iterate over articles and push not sold ones\n      for(uint i = 1; i <= articleCounter; i++) {\n        if (articles[i].buyer == address(0)) {\n          articleIds[numberofArticlesForSale] = articles[i].id;\n          numberofArticlesForSale++;\n        }\n      }\n\n      // Copy articleIds array into a smaller forSale array\n      uint[] memory forSale = new uint[](numberofArticlesForSale);\n      for(uint i = 0; i < numberofArticlesForSale; i++) {\n        forSale[i] = articleIds[i];\n      }\n\n      return(forSale);\n    }\n}\n",
  "sourcePath": "/Users/rodrigolabradorserrano/Documents/trials/crypto/Ethereum/chainskills/contracts/ChainList.sol",
  "compiler": {
    "name": "solc",
    "version": "0.8.10+commit.fc410830.Emscripten.clang"
  },
  "schemaVersion": "3.4.3",
  "updatedAt": "2021-12-06T17:24:00.336Z",
  "networkType": "ethereum",
  "devdoc": {
    "kind": "dev",
    "methods": {},
    "version": 1
  },
  "userdoc": {
    "kind": "user",
    "methods": {},
    "version": 1
  }
}